:100000000C9402020C941F020C941F020C941F0209
:100010000C941F020C941F020C941F020C941F02DC
:100020000C941F020C941F020C94E5200C94B9212F
:100030000C94181B0C941F020C941F020C941F02AA
:100040000C941F020C941F020C941F020C941F02AC
:100050000C941F020C949F1B0C941F020C941F0203
:100060000C941F020C941F020C941F020C941F028C
:100070000C941F020C941F020C941F020C941F027C
:100080000C941F020C941F020C941F020C941F026C
:100090000C941F020C941F020C941F020C941F025C
:1000A0000C941F020C941F020C941F0229001400D0
:1000B0001A000800150017001C0018000C001200A0
:1000C00013002D0023022A00390004001600070047
:1000D00009000A000B000D000E000F003300330270
:1000E0002F002800E1001D001B000600190005007C
:1000F000110010003600370038003000E500000025
:10010000E000E300E2008B002C002C008A00880055
:10011000E600E4006500000000000000005C010053
:1001200001000100010001000100010001000100C7
:1001300001000100010001000100010001000100B7
:1001400001000100010001000100010001000100A7
:100150000100010001000100010001000100010097
:100160000100010001000100010001000100000088
:100170000100010001000100010001000100010077
:10018000010001000100000000000000000000006C
:10019000000000002A2B28000000000000000000E2
:1001A0000000000000000029000000002C1E342088
:1001B000212224342627252E362D3738271E1F20AE
:1001C0002122232425263333362E37381F040506F3
:1001D0000708090A0B0C0D0E0F1011121314151637
:1001E0001718191A1B1C1D2F3130232D3504050635
:1001F0000708090A0B0C0D0E0F1011121314151617
:100200001718191A1B1C1D2F3130354C0000000027
:1002100000000000000000000000000000000000DE
:1002200000000000000000000000000000000000CE
:100230007E0F00D4FFFFFFC70000007814036100A9
:10024000630074005F006A007000350032005300E4
:1002500000002603410069006E006F007300750006
:100260006B0065005F0041006B0075007400610069
:1002700067006100770061000000040309040902BF
:100280005B00030100A0FA09040000010301010062
:100290000921110100012240000705810308000126
:1002A00009040100020300000009211101000122DC
:1002B0002200070582032000010705030320000137
:1002C00009040200010300000009211101000122BC
:1002D000B60007058403200001120100020000009F
:1002E00008414101A00100010200010660FF09610F
:1002F000A1010962150026FF0095207508810209F9
:1003000063150026FF00952075089102C0050109BC
:1003100002A10185020901A1000509190129081599
:100320000025019508750181020501093009311583
:1003300081257F95027508810609381581257F95ED
:100340000175088106050C0A38021581257F950183
:1003500075088106C0C005010980A1018503190146
:100360002AB700150126B700950175108100C00558
:100370000C0901A101850419012AA002150126A07A
:1003800002950175108100C005010906A1018506CD
:10039000050719E029E71500250195087501810277
:1003A0000507190029EF1500250195F07501810257
:1003B0000508190129059505750191029501750337
:1003C0009101C005010906A101050719E029E715FA
:1003D00000250195087501810295017508810105C7
:1003E00007190029FF150026FF00950675088100F2
:1003F00005081901290595057501910295017503F7
:100400009101C00011241FBECFEFDAE0DEBFCDBFE7
:1004100011E0A0E0B1E0EEE9F8E402C005900D9231
:10042000AA39B107D9F722E0AAE9B1E001C01D92CB
:10043000AC3AB207E1F70E941B110C9424240C94EF
:10044000000082E0089581E0089581E008950E940F
:100450002502089508950E942A020895A5E0B0E0BB
:10046000E4E3F2E00C94902349835A833091A10194
:1004700089819A81311119C0662399F0222389F06C
:100480000E941D08182F682F89819A810E94F90700
:1004900069817A81812F0E9403182596E3E00C94EC
:1004A000AC230E940B08182FF3CF0E941D0869810E
:1004B0007A81F1CFFC01262F4081518162817381C5
:1004C00084810E942E02089581E00895CF93DF93E6
:1004D000EC0160E00E945A02BE010E942B02DF91F3
:1004E000CF910895E1E0F0E0DF0102C0AA0FBB1F49
:1004F0006A95E2F7BD01DF0102C0AA0FBB1F4A9552
:10050000E2F76A2B01C0EE0F2A95EAF7962F98239F
:10051000961302C08E2B0895E0958E230895242F04
:10052000462F682F8091B7010E9472020E945907DE
:1005300008950E94BF0F08950E94C30F0895089563
:100540000E94EB060E949F022FEF84E39CE0215063
:1005500080409040E1F700C0000008950E94A00292
:100560000E94C31B08950E94A0020E94D41B0895FC
:100570000F931F93CF93DF938C0161E00E945A0287
:10058000EC01B8010E941114811106C080E0DF91D6
:10059000CF911F910F910895B801CE010E942702BB
:1005A0008823A1F3B801CE010E944919882371F371
:1005B000B801CE010E940015882341F3B801CE0195
:1005C0000E94BB18882311F3F8018281882361F00F
:1005D000CA35FDE5DF0701F158F4C115ECE5DE078A
:1005E00091F0CE3DDC4591F0C8010E942302CFCFAF
:1005F000CC358DE5D80769F090F0C73ADD45A1F715
:100600000E94B302C3CF0E94AE02C0CF0E94D60C9C
:10061000F7CF0E94100CE8CF0E941A0CE5CF0E9481
:100620001E0CE2CF0E94F41A0E942F0308950E942C
:1006300033030E94F91A089508950E941C03089537
:1006400081E008950E94200308950895CF93C82F54
:100650000E941D038C2F0E942203CF91089580E0F9
:100660000E94260308950E94A5190E94260308955A
:10067000CF930E94A519C82F80919C018C1779F007
:10068000C0939C010E94841B60939D0170939E0106
:1006900080939F019093A0018C2F0E942603CF91FD
:1006A0000895ABE0B0E0E7E5F3E00C9491234F83CD
:1006B000588769877A878B8761110E945B0B1E823E
:1006C0001D8285E0FE013796DE01119601900D92A4
:1006D0008A95E1F78C819D81892B61F449815A814A
:1006E0006B817C818D819E810E94840A2B96E2E041
:1006F0000C94AD2389819A8189238F3F79F3CE01B0
:1007000001960E9464028111E9CFF0CFFC01808143
:1007100091810E944A080895CF93C82F8823C9F079
:100720008238C9F40E94A51981FD13C089E30E9493
:10073000130B0E947C0B2FEF87EE93E0215080403B
:100740009040E1F700C0000089E30E941B0B0E946B
:100750007C0BCF9108958338A1F40E94A51980FDE8
:10076000F8CF83E50E94130B0E947C0B2FEF81EEE4
:1007700094E0215080409040E1F700C0000083E504
:10078000E4CF8438A1F40E94A51982FDE2CF87E46A
:100790000E94130B0E947C0B2FEF81EE94E02150FE
:1007A00080409040E1F700C0000087E4CECF8CEF9E
:1007B0008C0F813A90F46C2F80910001909101018F
:1007C0000E941A1A882329F08C2F0E941B0B0E946A
:1007D0007C0B8C2F0E94130BBACF80E28C0F8830D9
:1007E00048F4C77081E001C0880FCA95EAF70E94FB
:1007F0003E0BADCFEBE5EC0FE33040F4F0E0EB5B0C
:10080000FE4F808190E00E94DA19A3CFE8E5EC0F5B
:10081000E73150F4F0E0EE0FFF1FE95EFE4F8081FC
:1008200091810E94F01995CFC03F08F492CF8C2F90
:100830000E949F110E9472128CCF882309F455C028
:10084000823879F40E94A51981FF4FC089E30E9484
:10085000130B0E947C0B89E30E941B0B0E947C0BF4
:100860000895833859F40E94A51980FF3EC083E59E
:100870000E94130B0E947C0B83E5EECF843859F461
:100880000E94A51982FF31C087E40E94130B0E94C9
:100890007C0B87E4E1CF9CEF980F913AE8F290E26D
:1008A000980F983050F4877091E001C0990F8A95A5
:1008B000EAF7892F0E94440BD1CF9BE5980F933024
:1008C00028F490E080E00E94DA19089598E5980FE6
:1008D000973128F490E080E00E94F0190895803F5D
:1008E00020F00E94F9110E94721208951F93CF9375
:1008F000DF93182FEB010E948C03209739F4812F8E
:100900000E941D04DF91CF911F9108958FE99FE010
:100910000197F1F700C000002197EFCF70E060E091
:10092000893311F460E570E00E947604089588230D
:1009300021F00E943E0B0E947C0B0895882321F039
:100940000E94440B0E947C0B0895B0E0A0E0EBEA0B
:10095000F4E00C948A236C01D62FC72FFC0112817E
:10096000F580F2949FE0F9220E94340BE82E882350
:10097000B9F0E12E1123A1F08C2F807F803421F07B
:1009800080E28D0F8830D0F080918A0282FF16C0FD
:1009900082E00E94DF0B0E94340B91E0E82EE926F2
:1009A000BC2EB2948FE0B822FBE0FB1508F468C0BF
:1009B000EB2DF0E0EA5DFB4D0C947423E12CF0CFBD
:1009C0000C2F0F70C07F11F00295007F112399F05A
:1009D000002359F080E28D0F883010F0D11107C04C
:1009E000802F0E943E0B0E947C0B8D2F41C0802FD8
:1009F0000E944E0BF8CF8D2F0E941D04002309F496
:100A00003FC080E28D0F883010F0D11104C0802FDC
:100A10000E94440B03C0802F0E94540B0E947C0B49
:100A20002FC00C2F0F70C07FC03211F00295007FD5
:100A3000DD2381F0D13009F463C0112309F46DC0C6
:100A4000FF2009F463C0F601858180FFCECF8F704F
:100A500085835CC080918A0282FD33C0112359F0E6
:100A6000002329F0802F0E943E0B0E947C0B80E027
:100A70000E948C0305C080E00E941D040111C7CFB5
:100A8000EB2DE850FF0B349720F40E94A5190E942B
:100A90002603EE2089F00E94300B80FD0DC0F60188
:100AA00012820E942A0B0E946D07C6010E94AB06AB
:100AB0000E942A0B0E947907CDB7DEB7E9E00C94BB
:100AC000A623112389F0F11006C00E945E0B802B33
:100AD0000E949704D5CF21E0F212F7CF0E945E0B5F
:100AE000802B0E94650BCCCFF11006C00E94720BC8
:100AF000802F0E949E04C4CF31E0F31609F2F6CF96
:100B0000112331F085E08F1508F4BACF802FE0CFA4
:100B100094E09F1508F4B4CFEBCFFF2049F3D9330D
:100B200049F4FFEF27EE33E0F15020403040E1F789
:100B300000C000008D2F0E941D04A2CF8C2F86952F
:100B40008695837069F0813009F09ACF8D2F9C2FA4
:100B50009370111102C090E080E00E94F01990CFD4
:100B60008D2F9C2F9370111102C090E080E00E94A5
:100B7000DA1986CF8D2F112329F00E949F110E9430
:100B800072127ECF0E94F911FACF8C2F837079F503
:100B9000111176CF4D2F429546954770440F440F63
:100BA0008D2F8F70042E01C0880F0A94EAF72D2F25
:100BB0002071D4FF07C02FE030E001C0220F4A951A
:100BC000EAF72095C695C695C370822BC23049F0CE
:100BD00058F4C13019F00E94470752CF0E944107D4
:100BE0004FCF0E944D074CCF0E943E0749CF8695BC
:100BF000112311F08C2F8170882309F441CF4D2FE0
:100C0000429546954770440F440F8D2F8F70042EE8
:100C100001C0880F0A94EAF72D2F2071D4FF07C076
:100C20002FE030E001C0220F4A95EAF72095C695E3
:100C3000C695C370822BC23049F058F4C13019F008
:100C40000E9498071DCF0E9492071ACF0E949E070C
:100C500017CF0E94590714CFCF70112329F08C2F82
:100C60000E946D078D2F34CF8D2F0E949E048C2FF4
:100C70000E94790705CFD23F51F160F4D03FB9F01F
:100C8000D13F81F0112309F449C0F110AECE8C2F71
:100C90008F7121C0D33F11F1D43FA1F780918A0217
:100CA00082FD26C08C2F8F71112311F314C01123E4
:100CB00049F084E08F1508F4E3CE8C2F8F710E94E9
:100CC0008607DECE95E09F1508F4DACEF6CF8C2F9E
:100CD0008F711111CDCF0E946D07D2CE112329F053
:100CE0008C2F8F710E946407CBCE0E946007C8CE04
:100CF000112349F0CF718C2F0E946D0763E08C2F78
:100D00000E94C10BBDCE81E00E94DF0BE1E0EF1538
:100D100008F0B6CE82E00E94DF0BB2CEF110FFCE1B
:100D20008C2F8F71A5CF0F931F93CF93DF93EC017F
:100D3000688179818A810E9455088C010E94A407EC
:100D40000E943D07B801CE010E94A504DF91CF911A
:100D50001F910F910895CF93DF93EC018B819C81BC
:100D6000892B29F08881998189238F3F51F4DF9164
:100D7000CF910895CE010E949306CE010E94660293
:100D8000F6CFCE010E94B8028111F4CF0E94340B3D
:100D9000882369F38A81882351F380918A0282FF34
:100DA000E6CF82E00E94DF0BE2CF90E080E00E947D
:100DB000DA1990E080E00E94F0190E945B0B0E941B
:100DC0007C0B0E948E120E94721208950E94230BC7
:100DD0000E94D50608950E944B0B0E94E6060895D6
:100DE00092959F70963091F058F4925F9F70923078
:100DF00058F4803F19F030F4883E30F481E00895D3
:100E00009A5FF4CF843FD1F380E00895883EB0F339
:100E1000813FD1F7F3CFFC0183819481892B29F0A5
:100E20008081918189238F3F11F480E00895808132
:100E300091810E944A080E94F0060895A5E0B0E062
:100E4000E4E2F7E00C9491232596E2E00C94AD23C4
:100E5000A6E0B0E0EEE2F7E00C9491232696E2E003
:100E60000C94AD2308950E94320708950E94330721
:100E70008093B8010E94D506089508950E94360710
:100E800008959091B801892B0E943607089590919A
:100E9000B80189230E94360708959091B8018927E7
:100EA0000E94360708950E94320708950E94530752
:100EB00008950E9456078093B7010E94D5060895B1
:100EC00080E00E945907089591E001C0990F8A952A
:100ED000EAF7892F0E945907089521E030E001C008
:100EE000220F8A95EAF78091B701822B0E94590759
:100EF000089521E030E001C0220F8A95EAF720959D
:100F00008091B70182230E945907089521E030E0C3
:100F100001C0220F8A95EAF78091B70182270E94CB
:100F2000590708959091B701892B0E945907089598
:100F30009091B70189230E94590708959091B701B4
:100F400089270E94590708950895262F277091E058
:100F500001C0990F2A95EAF723E0769567952A95BF
:100F6000E1F7FB01EE0FFF1FE60FF71FE40FF51F80
:100F700050E040E0682F70E08191DF0111979B0104
:100F8000042E02C0369527950A94E2F72170219528
:100F90002827292328272C934F5F5F4F4330510583
:100FA00059F70895A82FA77023E0969587952A955D
:100FB000E1F7FC01EE0FFF1FE80FF91FE60FF71F27
:100FC00050E040E080E0219130E00A2E02C03695EA
:100FD00027950A94E2F721703327042E01C0220FCF
:100FE0000A94EAF7822B4F5F5F4F4330510559F760
:100FF0000895262F943070F48E3060F4682F70E0DE
:101000008EE0989F600D711D112442EA51E0822FFD
:101010000E94A5070895292F943068F48E3058F463
:1010200090E062EA71E03EE0239F800D911D112463
:101030000E94D207089580E00895CF92DF92FF9238
:101040000F931F93CF93DF936C010091B7018091B1
:10105000B801082BC7E0D0E010E0FC2EC8010C2E30
:1010600002C0959587950A94E2F780FD0CC0219700
:10107000A0F7F12C8F2DDF91CF911F910F91FF9051
:10108000DF90CF900895B6018C2F0E949D0E01979E
:1010900071F3F0CFCF93DF93EC010E941D08BE01E6
:1010A0000E949D0EDF91CF9108951F93CF93DF9300
:1010B000EB019091A101992339F0CB010E944A08DC
:1010C000DF91CF911F910895882369F0CB010E9491
:1010D0001D08182F682FCE010E94F907BE01812F2D
:1010E0000E949D0EEDCFCB010E940B08182FF6CF6A
:1010F0001F93CF93DF93C091B90116E08091BA019D
:101100008C1304C0DF91CF911F910895D0E01C9FF4
:10111000F0011D9FF00D1124E554FE4F40815181D7
:1011200062817381848195810E9428072196C7700E
:10113000E5CF4091EB015091EC016091ED01709190
:10114000EE018091EF019091F0010E94280708952F
:101150001F93CF93DF938091F001807F09F049C006
:101160008091ED01882309F444C08091B901C091B8
:10117000BA016091EB017091EC01A091EE01B09188
:10118000EF01D62FD72316E0C81799F190E01097FA
:1011900011F0DF3F19F401968770F6CF189F900188
:1011A000199F300D1124F901E554FE4F4181471379
:1011B000F2CF40814613EFCF42814111ECCF438102
:1011C00054814A1B5B0B483C510528F78091F00184
:1011D0008F7080618093F001F901E054FE4F8081AF
:1011E0008F70806180838BEE91E00E94AB060E943D
:1011F0007808DF91CF911F910895A1E1B0E0E3E07D
:10120000F9E00C9489238C0185E0F801DE011D963C
:1012100001900D928A95E1F7F801E2808BEEC82EDD
:1012200081E0D82E6091EE017091EF01611571059A
:1012300009F44EC19091EB012091EC01892F82239A
:101240008F3F09F445C140815181A380B480F09063
:10125000ED01F501E61BF70BFF2009F4EAC08091D0
:10126000F001382F307FE83CF10508F0A3C03111C0
:101270006DC0FE2C251316C0941314C0E11012C0CB
:101280008F7080618093F0010E949908C6010E94CE
:10129000AB068091F001F80185838F2D6196EAE01D
:1012A0000C94A523A114B10429F0842F85238F3F2A
:1012B00009F027C180E0F82FF170DF2E80FF3CC0DD
:1012C0008091B9012091BA0136E0821315C04D8793
:1012D0005E878D859E850E944A08292F22952F7052
:1012E0002230F0F0243018F59F70F1F0F80195816C
:1012F000907FD1F4D12C1EC090E0389FF001399F2F
:10130000F00D1124E554FE4F6181651306C0608124
:10131000641303C06281E6120FC001968770D5CFB7
:101320009F7011F0882331F3805E883018F3C80174
:101330000E94AB06FD2CB1CFEE2009F4AECF809118
:10134000F00181608093F001F12CA7CF251306C036
:10135000941304C0F801EE2009F487C0C8010E946C
:101360000B07882319F1EE2009F18091F0018032FA
:1013700070F02091EB013091EC0138872F831986B2
:10138000BB86AA868C87CE0107960E94AB0686E0B4
:10139000F801ABEEB1E001900D928A95E1F70E9461
:1013A000A8080E949908FF24F39477CFC8010E94EF
:1013B000AB06F9CF311113C07A2DB98AA88A6E2DE8
:1013C00089890E941E078BEE91E00E94AB0686E0A1
:1013D000F60111928A95E9F70E949908B5CF251375
:1013E0000FC094130DC0E1100BC0F8018583C80134
:1013F0000E94AB0686E0F60111928A95E9F74DCF7F
:10140000C8010E940B07882389F2EE2079F28091AF
:10141000F001803208F4BBCF2091EB013091EC0158
:101420003A8329831B82BD82AC828E83CE010196D2
:10143000ACCFE83CF10508F03EC0FE2CEE2009F4EC
:10144000B5CF25132AC0941328C08091F00180FDE8
:101450001BC0982F907FC1F0F8018583903F31F039
:10146000982F907F905F8F70892B8583C8010E9491
:10147000AB0686E0F801ABEEB1E001900D928A95E3
:10148000E1F70E94990809CF86E0F801ABEEB1E0E0
:1014900001900D928A95E1F700CFC8010E940B07D9
:1014A000811175CF8091F00181608093F001C801B6
:1014B0000E94AB06F2CE7A2DB98AA88A6E2D898950
:1014C0000E941E0786E0F60111928A95E9F7D9CFAE
:1014D000EE2009F46BCFC8010E940B07F82E882379
:1014E00009F464CF86E0F801ABEEB1E001900D9213
:1014F0008A95E1F78BEE91E00E9486030E94A8088E
:10150000C0CF81E08E25D7CEACE0B0E0EAE8FAE0CB
:101510000C9490234F83588769877A878B879C87A1
:10152000CE0107960E94FD08882369F08A859B8575
:10153000892B39F04F815885842F85238F3F09F0FF
:101540006BC016E05FC086E0FE013796DE011196A3
:1015500001900D928A95E1F78A859B85892B89F305
:101560008F81988589238F3F61F32091BA0130E004
:10157000C9010196877099274091B901481719064A
:1015800071F40E94EB061092BA011092B90186E044
:10159000EBEEF1E0DF011D928A95E9F7D2CF96E0FC
:1015A000929FD001939FB00D1124A554BE4FFE0110
:1015B000319601900D929A95E1F78093BA010E94BD
:1015C0007808BFCF819FC001112485549E4F0E948F
:1015D000FD088823E9F0E091B9011E9FF001112474
:1015E000E554FE4F408151816281738184819581F0
:1015F0000E9428078091B90190E001968770992791
:101600008093B9018091B9019091BA018913DACF21
:101610002C96E3E00C94AC2369857A858B859C85B8
:101620000E9428078ECF682F8091000190910101C0
:101630000E949A1A0895682F8091000190910101EB
:101640000E94A81A089580910001909101010E94C2
:10165000B61A08958091110285958595859508950E
:10166000809111028770089590911102977081E026
:1016700009F480E008958091340208959091340235
:10168000892B809334020895809590913402982399
:101690009093340208951092340208959091330289
:1016A000892B80933302089580959091330298237B
:1016B000909333020895109233020895809112029C
:1016C000089508950E94610B089590918A0292FFF7
:1016D00008C090911202981721F0809312020E9484
:1016E000620B089580911202882329F01092120251
:1016F00080E00E94620B0895CF93DF93E091000198
:10170000F0910101809134028083E0910001F09119
:101710000101808190913302892B80839091120284
:10172000992381F0E0910001F09101018081892BE2
:10173000808380910001909101010E94061A81111D
:101740000E94720BC0910001D091010140E250E073
:1017500061EF71E0CE010E94CC23892B59F080E229
:10176000FE01A1EFB1E001900D928A95E1F7CE0163
:101770000E94B219DF91CF91089508950E94BD0B88
:10178000089590918A0292FF11C098E0899F90017C
:101790001124622B609311020E946D078091110247
:1017A0008595859585950E94BE0B08950E946D07CD
:1017B00008951092110280E00E94BE0B089590914E
:1017C00011028095892380931102282F277091F4AC
:1017D000282F082E000C330B9217130659F0909106
:1017E0008A0292FF07C08595859585950E947907A5
:1017F0000E94D90B089590918A0292FB222720F92A
:10180000281769F080FB92F990938A0280918902EF
:1018100090918A020E944D0C82E00E94DF0B089595
:1018200080918A0282FB882780F991E089270E94B3
:10183000FB0B089581E00E94FB0B089580E00E945D
:10184000FB0B08956FEF7FEF90E080E00E940E2485
:10185000089590E080E00E94EA23883E9E4F19F4AC
:101860000E94AC13089580E0089582E090E00E9409
:10187000E223089583E090E00E94E2230895CF934D
:1018800084E090E00E94E223C82F82E290E00E9470
:10189000E223982F8C2FCF910895CF93C92F682FD3
:1018A00084E090E00E94F0236C2F82E290E00E949E
:1018B000F023CF910895AB01BC018FE090E00E942E
:1018C00002240895AB01BC0183E190E00E94022450
:1018D000089560E070E0CB010E94620C089560E022
:1018E00070E0CB010E945B0C0E94690C089568EEC9
:1018F0007EEF90E080E00E940E2460E082E090E0C5
:101900000E94F02360E083E090E00E94F0231092B8
:10191000B80160E084E090E00E94F02364E082E29D
:1019200090E00E94F02360E085E090E00E94F023C8
:1019300060E086E090E00E94F0236FEF87E090E0A7
:101940000E94F02340E050E0BA0188E090E00E945D
:10195000022460E08DE090E00E94F02340E050E03F
:10196000BA0188E190E00E94022460E087E190E003
:101970000E94F02340E050E0BA018CE190E00E9428
:10198000022470E060E080E290E00E940E2440E0DB
:1019900050E0BA0188E190E00E94022480E00E94B9
:1019A000C5130E94F4130E946F0C08950E94770CD7
:1019B0000895682F8EE090E00E94F02308950E9421
:1019C000841B60934302709344028093450290937A
:1019D000460260933F0270934002809341029093CD
:1019E00042020895089508950E94F30C0895089501
:1019F0000E94F70C089587E89FE00E949B190E94BF
:101A0000F20C0E94F40C089581E008950E94040DE8
:101A10000895089508950E94090D0E940A0D0895E1
:101A20000E94A30F0E94250308950E946F1B0E942D
:101A300004140E947C100E94100D0E94F80C08955E
:101A4000AAE0B0E0E6E2FDE00C9486230E9492104A
:101A500027E3822E22E0922E640110E0F601E1904D
:101A6000F1906F01812F0E94C60F1F5F143009F49F
:101A700049C0E816F90691F38091470281FD0E9462
:101A8000CF0F0E94060D782E10E0812F0E94C60F06
:101A90007C01F401A190B1904F018A159B0561F181
:101AA000A826BF2400E0CC24C394D12CC5018C21EE
:101AB0009D21892BC1F07720B1F00E831F8321E097
:101AC000C7018C219D21892B09F420E028870E94E1
:101AD000781B8160782F9A8789874E815F8168851E
:101AE0008A850E9451030F5FCC0CDD1C0E30F1F68D
:101AF000F4013297F182E0821F5F143031F60E94C8
:101B0000DF0C22C0E816F90609F0B6CF0E94781B58
:101B10008C01809135029091360208171907A1F0C7
:101B20008FEF89838A831B820E94781B8160782FC4
:101B30009D838C8349815A816B818D810E945103E1
:101B400010933602009335020E94B0120E943803AF
:101B50002A96EDE00C94A223CF93DF930E94A20E6D
:101B6000EC01811521E5920708F042C0811530E5AE
:101B7000930708F09FC0883E910530F5803E91059F
:101B800008F094C0883A910588F4853A910508F0E8
:101B900086C08130910509F489C0009709F486C098
:101BA000049708F083C0D0E0C0E080C08F3B91056F
:101BB000D0F7C85AD0E0CC0FDD1FC85BDE4F0990CC
:101BC000D881C02DD46472C0811540E2940750F4CE
:101BD000C11581E0D80708F069C0C03FD10518F3EE
:101BE000D06564C081159044F0F2DF70D06A5EC0A9
:101BF000811535E5930718F5811544E5940708F03C
:101C000085C0C11583E5D80708F06CC0C11522E571
:101C1000D20708F462C0CE018370992721E030E03A
:101C200002C0220F331F8A95E2F7C695C69580E25F
:101C3000C89FE0011124C22BD32BDC6837C081156B
:101C400039E59307A8F4811548E5940708F063C0C7
:101C5000C11586E5D80708F0A6CF8C2F0E94440F47
:101C6000C82FD0E0DC2FCC27CC27DF71D0621EC07C
:101C700081152AE5920708F453C0905681159042C9
:101C800008F091CF8D2F8F710E94440F90E0982F14
:101C9000882788279F719C012C2BE901E7CFC55A23
:101CA000D0E0CA58DE4FC881D0E0D064CE01DF91C9
:101CB000CF9108958370992721E030E002C0220F70
:101CC000331F8A95E2F7C695C69540E2C49FE001AE
:101CD0001124C22BD32BDD68E9CFDC2FCC27C16FB9
:101CE000D06AE4CFCE018370992721E030E002C0B2
:101CF000220F331F8A95E2F7C695C69540E2C49F2E
:101D0000E0011124C22BD32BDA68D0CFD82FCC27F7
:101D1000C46FD06ACBCFD82FCC27C06FD06AC6CFC4
:101D20008F700E94440F34E0D695C7953A95E1F73D
:101D3000CF709C2FEC01D069B9CF0E9403180E948C
:101D4000AC0D089582389105B9F1B0F48133910555
:101D500009F47DC048F48932910509F46DC08A32D6
:101D6000910509F47BC008958533910509F45FC09E
:101D70008933910509F10895833E9105D9F138F42D
:101D8000803E910529F1823E910579F10895863EC4
:101D90009105D9F1873E910509F43EC0843E910535
:101DA00041F520918A0221FF24C08091890284FD9F
:101DB00019C087EE90E0089520918902237009F000
:101DC0005AC020918A0223FF14C089E290E008954E
:101DD0002091890220FD38C030918A0230FF09C06D
:101DE00024FF43C090E080E008952091890222FD05
:101DF000F7CF08952091890222FD3AC030918A02DE
:101E000030FD39C024FFF5CFEDCF2091890223FFAB
:101E1000F0CF24FDE7CFCDCF2091890223FD2EC046
:101E200030918A0231FFEECF84EE90E00895209148
:101E3000890225FFDECFC9CF2091890225FD21C06F
:101E400020918A0223FFD5CF89E390E0D2CF209161
:101E5000890226FFCECF8AE290E008952091890280
:101E600026FFC7CF81E390E0089583EE90E00895C8
:101E700082EE90E0089580EE90E0089586EE90E086
:101E8000089585E390E008959091890292FF06C03D
:101E9000282F28712830F9F4877F846093FF06C0CB
:101EA000282F28712831F1F4877E846120918A02DD
:101EB00020FF06C0382F38713830D9F4877F816011
:101EC00021FF06C0282F28712831D1F4877E816137
:101ED00094FD877E0895282F24712430F9F68B7F96
:101EE0008860DCCF282F2471243101F78B7E886134
:101EF000DDCF382F3171313019F78E7F8860E0CF18
:101F0000282F2171213121F78E7E8861E1CF80E079
:101F100008950E94220C08950E9492108FE39CE97C
:101F20000197F1F700C000000E94921080E00E942B
:101F3000C60F80FF04C00E94890F0E94C31B089532
:101F40000E948C0F08950E94290C811102C00E94EA
:101F5000D60C0E94350C809347020E943F0C909350
:101F60008A02809389020E94A00F0E943A0C0E946C
:101F70003E078091B7010E945607089508950E9478
:101F8000BE0F089508950E94C20F0895E82FF0E053
:101F9000EE0FFF1FED56FD4F80819181089508954A
:101FA00080EA8A95F1F7089500C008950E94D00F45
:101FB0000895F894E82FE295EF70F0E031A1282F12
:101FC0002F7081E090E001C0880F2A95EAF7982FE2
:101FD0009095932391A392A1892B82A3789408953D
:101FE000CF93DF9383E90E94D90F82E90E94D90F32
:101FF00081E90E94D90F80E90E94D90FC9E7D1E099
:1020000089918F3F11F00E94D90F81E0C738D8071E
:10201000B9F7DF91CF910895AF92BF92DF92EF921F
:10202000FF920F931F93CF93DF938C01D62EC62F71
:10203000D0E0CE0189579E4F7C01FC0120812F3FCB
:1020400009F44DC0F894E22FE295EF70F0E031A171
:102050002F7081E090E001C0880F2A95EAF7932F56
:10206000982B91A392A18095892382A378940E94B2
:10207000D40FE9E7F1E047E851E021E030E0B12C8E
:10208000A12C61916F3FA9F1A62FA295AF70B0E08E
:1020900090968C9190E06F7002C0959587956A95A7
:1020A000E2F780FD26C0C901A82AB92A220F331FF2
:1020B0004E175F0731F7F70180818F3F11F00E94C3
:1020C000D90F61E0A114B10409F460E08D2D0E94E4
:1020D000D60FCC0FDD1FC00FD11FB982A882DF91B0
:1020E000CF911F910F91FF90EF90DF90BF90AF9035
:1020F000089590E080E0D8CF0E94F00F88E0E3E9F7
:10210000F2E0DF01982F1D929A95E9F7EBE8F2E0F3
:10211000DF011D928A95E9F784E00E94CD100E94AC
:1021200099020895A8E0B0E0E8E9F0E10C948E236C
:102130008E010F5F1F4F88E0F80111928A95E9F731
:10214000F12C6F2DC8010E940C10F394F4E0FF12E3
:10215000F8CF48E050E0B8018BE892E00E94CC2331
:1021600021E0009709F420E0892B41F088E0F80194
:10217000ABE8B2E001900D928A95E1F744E063E9A3
:1021800072E08BE892E00E94CE10182F0E949C0211
:10219000812F2896E5E00C94AA230895CF92DF9230
:1021A000EF92FF921F93CF93DF936C017B01C42FBB
:1021B000222349F081E080934A020E94781B909389
:1021C00049028093480210914A0211110AC010E09E
:1021D000812FDF91CF911F91FF90EF90DF90CF90F3
:1021E000089580914802909149020E94901B0597A2
:1021F00070F3D0E0CC0FDD1FAE01B601C7010E9425
:10220000CC23892B41F0AE01B601C7010E94D9232E
:1022100010924A02DDCF10E0FBCF0E94BF1D0E944A
:10222000150D0E94CC1D08950E94D11D0E94200D05
:102230000E94EB1D08950E94111B0E94A51D0E9483
:10224000FB0C0E940D110E9414110E940B0DFBCF7C
:102250008091510280FF0DC06091070170E0660F10
:10226000771F6038710570F56115710569F1862F6A
:10227000089581FF07C06091070184E0689FB00165
:102280001124EFCF6091070182FD0AC080915002B6
:102290008823A9F02091060160910701821710F0B0
:1022A00088E0ECCF869FC001112433E0880F991F8E
:1022B0003A95E1F7622F70E00E946023D2CF68E088
:1022C00070E0D5CF8FE7089581E0089580915102A5
:1022D00080FF0CC06091030170E07595679575955E
:1022E00067956115710549F1862F089581FF06C034
:1022F0006091030170E075956795F3CF60910301DC
:1023000082FD0BC090914F029923A1F060910201D0
:1023100080910301961738F0682F70E060387105DE
:1023200000F38FE70895899FC001112470E00E9497
:102330006023F4CF61E070E0D7CF81E00895803F63
:1023400031F40E9428118195809355020895813FB0
:1023500019F40E942811F8CF823F31F40E9428110D
:102360008195809354020895833F19F40E942811A7
:10237000F8CF893F29F40E94661180935602089590
:102380008A3F21F40E9466118195F7CF8B3F31F48B
:102390000E94661181958093570208958C3F19F42D
:1023A0000E946611F8CF9CE0980F953070F4845F1E
:1023B000990B21E030E001C0220F8A95EAF7809165
:1023C0005302822B8093530208958D3F31F4809104
:1023D000510281608093510208958E3F21F48091D3
:1023E00051028260F7CF8F3FB9F78091510284602C
:1023F000F1CF40915402803F59F48091550287FFFC
:102400000DC01092550241110BC01092500208C02D
:10241000813F81F48091550218169CF3442381F08A
:102420008091560290915702892B09F05AC0109260
:102430004F020895823F49F447FFF0CF10925402B3
:10244000809155028111ECCFE0CF833F19F414162F
:10245000ACF3E4CF90915602893F29F41916F4F6B3
:1024600010925602DBCF8A3F19F497FFD7CFF8CFEF
:10247000909157028B3F29F497FFD0CF10925702CB
:10248000CDCF8C3F19F41916CCF3C8CF9CE0980F30
:10249000953090F4845F990B21E030E0B90102C0DF
:1024A000660F771F8A95E2F7CB01809590915302D2
:1024B000892380935302B2CF8D3F31F48091510232
:1024C0008E7F80935102AACF8E3F21F480915102DA
:1024D0008D7FF7CF8F3F09F0A1CF809151028B7F85
:1024E000F0CF08950E94781B9C0190915402809136
:1024F0005502982B21F030934E0220934D0290917B
:10250000560280915702982B21F030934C02209371
:102510004B0282E592E00E94CC19089586E0E2E544
:10252000F2E0DF011D928A95E9F7109250021092B5
:102530004F02109251020895FC01828181110EC058
:10254000838181110BC08481811108C091E0858154
:10255000811101C090E0892F8170089581E0FCCF46
:10256000A6E0B0E0E6EBF2E10C94902386E0E2E531
:10257000F2E0DE01119601900D928A95E1F710923A
:1025800054021092550210925602109257028B81FB
:102590009C81892B89F080914D0290914E020E947E
:1025A000901BAC01909150029923C9F180910801D0
:1025B0008417150608F440C08D819E81892B91F007
:1025C00080914B0290914C020E94901BAC01909123
:1025D0004F02992309F471C08091040184171506F4
:1025E00008F479C0BE016F5F7F4F82E592E00E94E0
:1025F000C81A811105C082E592E00E949C128111E7
:102600000E94721286E0FE013196A2E5B2E00190CE
:102610000D928A95E1F72696E3E00C94AC23209185
:1026200009018AE0289F900111242417350720F61C
:102630009F5F9093500202C09F3FD1F71B811123EF
:1026400059F00E9428119FEF11160CF491E0899F18
:10265000802D1124809354021C81112359F00E9473
:1026600028119FEF11160CF491E0899F802D112401
:102670008093550230915402332309F49DCF209169
:102680005502222309F498CF45EB3403C0011124ED
:10269000992359F09093540245EB2403900111249F
:1026A000332339F03093550287CF81E08093540271
:1026B000F3CF81E0809355027FCF209105018AE01E
:1026C000289F900111242417350708F08BCF9F5FB6
:1026D00090934F0202C09F3FD1F71D81112359F003
:1026E0000E9466119FEF11160CF491E0899F802DD6
:1026F0001124809356021E81112359F00E94661105
:102700009FEF11160CF491E0899F802D1124809386
:10271000570230915602332309F464CF20915702B7
:10272000222309F45FCF45EB3403C0011124992320
:1027300059F09093560245EB240390011124332362
:1027400039F0309357024ECF81E080935602F3CF99
:1027500081E08093570246CF83E290E00E94E2231B
:10276000823289F484E290E00E94E223813159F4BC
:1027700085E290E00E94E22391E0843009F090E04D
:10278000892F8170089580E0FCCFCF93C82F6FEF21
:10279000811162E283E290E00E94F0236FEFC111A9
:1027A00061E184E290E00E94F0236FEFC11164E0E8
:1027B00085E290E00E94F023CF910895089586E28B
:1027C00090E00E94E223682F70E090E080E008959E
:1027D0000895CF93C62F0E94E8136C2F86E290E0F5
:1027E0000E94F023CF91089580E00E94C51360E01D
:1027F00070E0CB010E94E9130E9481170E946018CB
:1028000081E00E94C51308950E94DE130E94DF1329
:102810000E94E8130E94AC13811102C00E94F413BD
:102820000895CF93FB01C281CC2309F19C01225171
:102830003F452031310520F582510E947018C0E0DB
:102840008C2FCF91089581E00E946D0743E062E0F4
:1028500081E00E948F02F3CF81E00E94790743E07C
:1028600062E081E00E948F02EBCF82E0F6CF803100
:10287000FFE59F0789F381319F45B9F3C1E0E0CFC0
:102880008031EFE59E07F9F281319F45C9F682E07C
:10289000DBCF2FEFFC0120830895EF92FF920F937F
:1028A0001F93CF93DF93EC01062FE881E150E331D2
:1028B00008F05DC0F0E0EE5CFB4D0C9474231982CF
:1028C0008AE08A83602FCE010E94781CCDB7DEB7E4
:1028D000E6E00C94A9238981823069F0833071F09D
:1028E0008130D9F40E94841B0E947A236A837B83FF
:1028F0008C839D83E7CF0E94DF13F6CF7E0110E02B
:10290000812F0E94C60FF701928383831F5FF2E03D
:10291000EF0EF11C1430A1F7D5CF602FCE010E942D
:102920004914D0CF89818230C1F76A817B818C8143
:102930009D810E947A230E94E913C4CF4B816A8152
:1029400089810E9443179827892798279D838C8324
:10295000B9CF2C813D813227232732274B816A81D1
:1029600089810E946517AECF0E948117ABCF8FEF90
:102970008883A8CF0E9411188983A4CF0E941318BE
:102980009827892798279A8389839CCF6B8170E049
:1029900089819A81AE014C5F5F4F982789279827DC
:1029A0000E9416188FCF6B8170E089819A81AE01E9
:1029B0004C5F5F4F9827892798270E943B1882CF4A
:1029C0000E9460187FCF0E943117D6CF6B8170E0D4
:1029D00089819A81AE014C5F5F4F9827892798279C
:1029E0000E94BB176FCF6B8170E089819A81AE0125
:1029F0004C5F5F4F9827892798270E94DF1762CF87
:102A0000CF93DF93EC01FB018281882309F464C139
:102A1000C330FDE5DF07E0F5CA3F9CE5D90730F498
:102A20009E0122503C4524313105D8F50E943F0CCF
:102A300090938A0280938902C231ECE5DE0709F4A3
:102A40001FC108F06EC0C9308CE5D80709F4F2C088
:102A500008F03FC0C530ECE5DE0709F4DBC058F5EF
:102A6000C3308CE5D80709F4CDC008F0CFC0809101
:102A700089028160C230DC4509F4AEC080918902D0
:102A800090918A020E944D0C0E94EB0680E009C0E2
:102A9000C53AEDE5DE0751F238F4C1369DE5D907B8
:102AA00029F2DF91CF9108959E012D5A3D452330A3
:102AB0003105B8F7BBCF809189028062C730FCE551
:102AC000DF0709F489C008F4B1C0809189028064ED
:102AD00083C0CD309CE5D90709F4BAC070F4809169
:102AE00089028E7FCB30FCE5DF0709F475C008F45E
:102AF000A7C0809189028D7F6FC0CF309CE5D90738
:102B000009F4B6C008F4A8C0C031FCE5DF0709F439
:102B1000B3C0C131DC4509F0B1CF809189028F7B10
:102B20005BC0CF3F9CE5D90709F4B4C098F5CA3F14
:102B3000FCE5DF0709F472C0B8F4C4319CE5D9079D
:102B400009F4B6C008F4A2C0C531DC4509F096CF3F
:102B50008091890282FB992790F921E0922790FBCE
:102B600082F990FB83F938C0CC3F8CE5D80709F493
:102B700077C008F457C0CD3FECE5DE0709F474C018
:102B800080918A028360CE3FDC4509F077CF809345
:102B90008A0274CFC1368DE5D80709F496C068F46F
:102BA000C130EDE5DE0709F48CC008F477C0C2300F
:102BB000DD4509F063CF80E085C0CD3A9DE5D907BA
:102BC000E9F068F490918902892F8E7F90FF8160EF
:102BD000C53ADD4509F052CF809389024FCFCE3AF6
:102BE0008DE5D80789F1CF3ADD4509F047CF9091BF
:102BF0008A02892F877F93FF8860C9CF80918A02DC
:102C00008860C5CF809189028260E6CF8091890279
:102C10008460E2CF809189028860DECF80918A0251
:102C20008160B5CF80918A028260B1CF80918902A4
:102C30008061D2CF0E94EB06809189028068CCCF60
:102C4000809189028C60C8CF80918A02877F9FCF54
:102C5000809189028B7FC0CF80918902877FBCCF12
:102C600080918A028E7F93CF80918A028D7F8FCF51
:102C7000809189028F7EB0CF809189028F7DACCF09
:102C80000E94EB06809189028F77A6CF80918902FE
:102C9000837FA2CF80918A028C7F79CF80918A0234
:102CA000982F909591708E7F892B90FB81F96FCF33
:102CB0000E94EB0690918902892F97FB87F9805833
:102CC0008BCF81E00E94D90CD9CE90918902892FB7
:102CD0008F7E94FF806180CF81E0E3CEB0E0A0E002
:102CE000E4E7F6E10C948C23E82FF0E0E457FE4F84
:102CF000D490282F26952695269530E0F901E45D9D
:102D0000FD4F0491877010E0082E02C015950795BD
:102D10000A94E2F701701127F901E45EFD4FE49097
:102D2000F12C082E02C0F594E7940A94E2F791E0A2
:102D3000E922FF24F901E45FFD4FC491D0E002C015
:102D4000D595C7958A95E2F7C170DD270115110564
:102D500019F081EE0E948C03E114F10419F086EE63
:102D60000E948C038D2D0E948E04E114F10419F051
:102D700086EE0E941D040115110519F081EE0E94D6
:102D80001D04CD2B19F08CE20E948E04CDB7DEB766
:102D9000E7E00C94A823EF92FF920F931F93CF9339
:102DA000DF93EC01162F0AE08881882309F454C0D0
:102DB000813009F04EC08981813099F47E0122E092
:102DC000E20EF11C8A810E948E04E7012196812F78
:102DD000815050F3EFE9FFE03197F1F700C00000B8
:102DE000F7CF823041F47E0182E0E80EF11C8A8147
:102DF0000E948C03EACF833041F47E01E2E0EE0EC4
:102E0000F11C8A810E941D04E0CF843011F02196CC
:102E1000DDCF2A81229690E080E0AE014F5F5F4FC8
:102E20002053330B2A30310548F0019778F2EFE94F
:102E3000FFE03197F1F700C00000F7CF089FB00125
:102E4000099F700D1124C901860F971F2981EA017E
:102E5000E4CF0E946E16BACFCDB7DEB7E6E00C9491
:102E6000A92384E0089550E0440F551F9CE1699F19
:102E7000400D511D112490E7899F400D511D1124D3
:102E8000CA01879608950F931F93CF93DF938430E1
:102E9000C8F46430B8F44E30A8F40E9433178C01A3
:102EA0000E94E223C82FD0E0DC2FCC27C801019676
:102EB0000E94E2239E01282BC901DF91CF911F912F
:102EC0000F91089590E080E0F8CF0F931F93CF9378
:102ED000DF93122F032F843078F4643068F44E307F
:102EE00058F40E943317EC01602F0E94F023612FE9
:102EF000CE0101960E94F023DF91CF911F910F9197
:102F00000895B0E0A0E0E7E8F7E10C9489238CEAAB
:102F1000C82E80E0D82ED0E0C0E0760110E01CC0C2
:102F20000E94210221E030E08C171D0621F01CF0E8
:102F3000F50125913491402F612F8C2F0E94651748
:102F400082E0A80EB11C0F5F0E3051F71F5F8CE1BD
:102F5000E80EF11C143019F0570100E0E1CF219682
:102F600080E7C80ED11CC430D105B9F6CDB7DEB7A5
:102F7000EAE00C94A523EF92FF920F931F93CF9357
:102F8000DF93EC018A017C01E60EF71ECE018796E5
:102F9000CE15DF0529F4CDB7DEB7E6E00C94A92302
:102FA000C03C21E0D20740F40E94E223F801808374
:102FB0000F5F1F4F2196EACFF8011082F9CFB0E0E2
:102FC000A0E0E5EEF7E10C948B237C016A018C0113
:102FD000060F171FEC01CE018796C017D10729F401
:102FE000CDB7DEB7E8E00C94A723C03C21E0D207C0
:102FF00040F4FE01EE19FF09EC0DFD1D60810E94F9
:10300000F0232196E8CF462F843040F4743030F41A
:103010006E3020F4672F0E944317089590E080E0FF
:10302000089580E1089589E192E00895EF92FF927A
:103030000F931F93CF93DF93EC018A017C01E60E7F
:10304000F71ECE0189519E4FCE15DF0529F4CDB76D
:10305000DEB7E6E00C94A923C93122E0D20740F4A0
:103060000E94E223F80180830F5F1F4F2196E9CF72
:10307000F8011082F9CFB0E0A0E0E1E4F8E10C94AF
:103080008B237C016A018C01060F171FEC01CE0116
:1030900089519E4FC017D10729F4CDB7DEB7E8E0BC
:1030A0000C94A723C93122E0D20740F4FE01EE19A7
:1030B000FF09EC0DFD1D60810E94F0232196E7CFF2
:1030C000CF93DF93C7EED1E060E0CE010E94F02302
:1030D0002196C11584E0D807B9F7DF91CF91089503
:1030E000A4E0B0E0E6E7F8E10C948C23F82E8FE042
:1030F0008F1548F18FEF93E00E94E223811123C0E6
:1031000007EE11E0F11023C019821A821B821C8283
:10311000DD24D39478018FEFE81AF80AC8010E94E1
:10312000E22389831A82882371F09FEF980F9330EE
:10313000D8F48A83D9820E5F1F4FC7010E94E22311
:103140008B83811112C02496E7E00C94A82301150B
:1031500084E01807C1F3C8010E94E223811101C075
:10316000FA940F5F1F4FCECF870160E0CE0101962A
:103170000E94CB16CFCFCF93DF93EB0186319C45D6
:1031800011F50E943B0B9A81992399F08A7A91E07C
:1031900009F490E090935802811109C089E20E94DD
:1031A000130B0E947C0B80E0DF91CF91089585E3A3
:1031B000F6CF80915802811104C089E20E941B0B56
:1031C000F0CF85E3FBCF81E0EFCF0F931F93CF9339
:1031D000DF93C42FD22FFC0182818823C9F0409352
:1031E0005B020E94781B90935A028093590280E2FE
:1031F0008C0F883040F4C77081E001C0880FCA95F9
:10320000EAF70E949704DF91CF911F910F910895E3
:1032100010915B02141332C08091590290915A02AE
:103220000E94901B883C910548F5C0E2CD0F1D1708
:10323000B9F080E2810F883040F4177081E001C05E
:10324000880F1A95EAF70E949E04C83048F481E07E
:103250009D2F977001C0880F9A95EAF70E949704F6
:10326000802F0E948E04C83070F6D77081E001C0B4
:10327000880FDA95EAF70E949E04C5CF80E28C0F92
:10328000883008F6C77081E001C0880FCA95EAF758
:10329000F2CF0F939C01CB01233F4CE5340759F14A
:1032A000A8F4283DFCE53F0701F1293D4CE5340732
:1032B000D1F1273D3C4591F406E221EE41EE67ED68
:1032C0007CE50E94E51880E00F910895253FFCE51C
:1032D0003F07E9F0B0F0263F3C45F9F0FC01828160
:1032E000882339F110925B02EFCF07E225EE45EE1D
:1032F00068ED7CE5E6CF06E221EE40EE63EF7CE58B
:10330000E0CF07E225EE44EE64EF7CE5DACF06E29B
:1033100021EE42EE65EF7CE5D4CF07E225EE46EEE6
:1033200066EF7CE5CECF08E221E045EE69ED7CE575
:10333000C8CF81E0C9CF90939B0180939A010895F3
:1033400090936102809360020895E0916002F09191
:103350006102309729F00190F081E02D09950895E0
:1033600080E00895E0916002F0916102309799F059
:1033700020911601222359F02091890227FF07C0CE
:10338000DC012C9111962C93119726E02C9302804E
:10339000F381E02D09950895E0916002F0916102BA
:1033A000309739F022E0DC012C930480F581E02D88
:1033B0000995089520915E0230915F022817390720
:1033C00071F090935F0280935E02E0916002F09151
:1033D0006102309721F00680F781E02D099508956C
:1033E00020915C0230915D022817390771F09093AB
:1033F0005D0280935C02E0916002F091610230977F
:1034000021F00084F185E02D09950895FC013296A4
:1034100080911601882321F0809189029EE187FF27
:1034200096E080E0915008F4089521912223D1F391
:103430008F5FF8CF662301F1209116012223F1F06E
:103440002091890227FF1AC0462F4695469546953A
:103450004E3190F4677021E030E002C0220F331F3C
:103460006A95E2F7840F911DFC01828190E0282388
:10347000392381E0232B69F480E00895FC01329622
:1034800008962191261721F0E817F907D1F7F4CF14
:1034900081E008959C01FC0132969FEF80E041910C
:1034A000461751F09F3F19F4411101C0982F8F5FCB
:1034B0008630A9F79F3F09F40895290F311D97FD24
:1034C0003A95F90162830895FC013296089621919C
:1034D000261303C0DF0111971C92E817F907B9F70B
:1034E0000895E62FE695E695E695EE3168F4E80F47
:1034F000F92FF11D677021E030E001C0220F6A95BD
:10350000EAF78281822B82830895E62FE695E6957D
:10351000E695EE3170F4E80FF92FF11D677021E0A8
:1035200030E001C0220F6A95EAF7209582812823B6
:103530002283089520911601222339F020918902D7
:1035400027FF03C00E94711A08950E944A1A089525
:1035500020911601222339F02091890227FF03C010
:103560000E94851A08950E94641A0895FC013296FB
:1035700080911601882351F08091890287FF06C04F
:103580008EE1DF011D928A95E9F7089586E0F9CF73
:1035900046E050E00E94CC2321E0892B09F420E092
:1035A000822F089508950E94D21A0895811106C0AD
:1035B00081E0809362020E94D31A089582E0F9CFDD
:1035C00083E0809362020E94D31A08950E94D61A63
:1035D000089581E0809362020E94D31A08950E94A8
:1035E000E91A0895089508950E94F31A0895089518
:1035F00008950E94F21A0895CF930E94F71A0E942C
:1036000092100E94F81AC0E08C2F0E94C60F892BDE
:1036100031F4CF5FC430C1F780E0CF91089581E0ED
:10362000FCCF85B7806885BF85B7806885BF089562
:103630001F921FB61F9211248F939F93AF93BF9336
:1036400080916302811113C080919B0290919C0232
:10365000A0919D02B0919E024196A11DB11D809343
:103660009B0290939C02A0939D02B0939E02BF91F7
:10367000AF919F918F911F901FBE1F9018958091C1
:10368000A302843031F10E9412031092630288E198
:1036900090E020E40FB6F894A895809360000FBEE8
:1036A0002093600083B7817F846083BF83B781608C
:1036B00083BF7894889583B78E7F83BF0FB6F894C5
:1036C000A8958091600088618093600010926000EE
:1036D0000FBE08950E94EB060E941703089582E032
:1036E00084BD93E095BD9AEF97BD80936E000895D9
:1036F0002FB7F89480919B0290919C02A0919D021B
:10370000B0919E022FBF08952FB7F89460919B024D
:1037100070919C0280919D0290919E022FBF08950E
:103720009C014FB7F89480919B0290919C02A091CC
:103730009D02B0919E024FBF821B930B0895789417
:103740001F921FB61F9211248F939F93AF93BF9325
:1037500080919B0290919C02A0919D02B0919E024B
:103760000196A11DB11D80939B0290939C02A09392
:103770009D02B0939E02BF91AF919F918F911F9038
:103780001FBE1F90189587E797E7909301088093D5
:10379000000888E19AE00FB6F894A895809360003D
:1037A0000FBE90936000FFCF88E19AE00FB6F894C7
:1037B000A895809360000FBE90936000FFCF80912A
:1037C0008702089508959C0184E08093E9009FEFAB
:1037D0008091E800915085FD06C085ED8A95F1F74E
:1037E00000009111F5CF8091E80085FF0CC050E0FA
:1037F00040E066E070E0C9010E948A1E8091E80006
:103800008E778093E8000895CF93DF93EC01809149
:1038100016018823B1F18091890287FF32C060E2EE
:1038200084E08093E9008FEF9091E800815095FD4E
:1038300006C095ED9A95F1F700008111F5CF8091C2
:10384000E80085FF1BC08091160170E050E040E069
:10385000811104C050E040E068E070E0CE010E94B9
:103860008A1E8091E8008E778093E80080E2FE0156
:10387000A7E6B2E001900D928A95E1F7DF91CF9132
:10388000089568E081E0CDCF809364027093660272
:10389000609365028091A3028430F9F48093E9007B
:1038A0008FEF9091E800815095FD06C095ED9A95B7
:1038B000F1F700008111F5CF8091E80085FF0DC080
:1038C00050E040E063E070E084E692E00E948A1EEF
:1038D0008091E8008E778093E8000895BC0184E031
:1038E0000E94441C0895BC0183E00E94441C08957A
:1038F000CF93FC01603221F58091A302843001F561
:10390000C091E900CF702091EC00922F917020FDC2
:1039100090E8C92B82E08093E9008091E80080FF65
:103920000CC050E040E060E270E0CF010E948A1ECF
:103930008091E8008E778093E800CF70C093E90013
:10394000CF9108958091A202811109C00E9469203F
:103950000E94C6208091E20084608093E200089576
:103960001092A20208950E94E91A089560919F02A0
:1039700081E0611101C080E00E94E01A08959091F9
:10398000A30281E0943009F080E060919F020E94E0
:10399000E61A089542E061EC81E00E94E51F42E2F0
:1039A00061EC84E00E94E51F42E261EC82E00E944B
:1039B000E51F42E260EC83E00E94E51F9091A302C4
:1039C00081E0943009F080E060919F020E94D61A55
:1039D00008958091A502833009F463C030F48130EA
:1039E000E1F1823009F4A0C008958A3009F48CC056
:1039F0008B3009F471C0893009F052C08091A40263
:103A0000813209F04DC08091A8029091A9020097DF
:103A100019F0029709F044C08091E800877F8093F5
:103A2000E8008091E80082FF37C09091F300809118
:103A3000F200029731F48091F100813011F086306C
:103A400021F48091F100809387028091E8008B77C8
:103A50008093E8000E94192023C08091A402813A3B
:103A6000F9F48091E800877F8093E8008091A802B4
:103A70009091A902892B61F460E287E692E070E000
:103A80000E94281F8091E8008B778093E8000895BA
:103A900060E090E080E0F3CF8091A3028111C1CF7C
:103AA00008958091A402813AD9F78091A80290915B
:103AB000A902892BA9F78091E800877F8093E8000D
:103AC0008091E80080FFFCCF809116018093F10087
:103AD0008091E8008E77BCCF8091A402813201F7FB
:103AE0008091A8029091A902892BD1F68091E800DB
:103AF000877F8093E8000E9419208091A60280931E
:103B000016010E94EB0608958091A402813241F6CD
:103B10008091E800877F8093E8000E9419208091BF
:103B2000A7028093880208958091A402813A09F047
:103B3000B7CF8091E800877F8093E8008091E8000C
:103B400080FFFCCF80918802C1CF84B7877F84BF7C
:103B50000FB6F894A895809160008861809360000A
:103B6000109260000FBE80E890E00FB6F89480934A
:103B70006100909361000FBE0E94EF1A08950E94A9
:103B800069200E94C620E2EEF0E08081846080839C
:103B900078940E94452308958AE091E00E94A0193C
:103BA00008958091A302853031F48091A30285307D
:103BB00019F00E946A1B08950E943F1B8091A10288
:103BC000882399F30E94FC1A882379F30E94741EBB
:103BD0000E94EB06EACFA0E2B0E0E1EFFDE10C9439
:103BE00091238091A302843009F583E08093E9005A
:103BF0008091E80082FF1AC08091E80090E085FF84
:103C000009C050E040E060E270E0CE0101960E9401
:103C1000D91E91E08091E8008B778093E80099238A
:103C200029F060E2CE0101960E944D14A096E2E0D8
:103C30000C94AD230E941D1E0895292F3327233095
:103C4000310521F168F42130310509F443C02230F7
:103C5000310509F444C090E080E030E020E026C067
:103C60002132310551F122323105A9F76330710556
:103C700090F7FB01EE0FFF1FE257FE4F20813181CD
:103C800065577E4FFB01808190E010C099278130FD
:103C9000910581F0009729F00297E9F6ECE3F2E054
:103CA00002C0EAE7F2E0849190E09F01FA013183DB
:103CB00020830895E2E5F2E0F6CF6330710558F60F
:103CC000660F771FFB01EC56FE4F2081318189E0A2
:103CD00090E0ECCF82E190E029ED32E0E7CF8BE598
:103CE00090E02EE732E0E2CF80E189BD82E189BD3C
:103CF00009B400FEFDCF8091D8008F7D8093D8005D
:103D00008091E00082608093E0008091E00081FD7E
:103D1000FCCF0895AF92BF92CF92DF92FF920F93A4
:103D20001F93CF93DF936C01EB018A010E9438202F
:103D3000F82E811123C00115110539F0F801808199
:103D40009181C81BD90BC80ED91EB12CA12C20976C
:103D5000A9F08091E80085FD22C08091E8008E776F
:103D60008093E80001151105A1F0F801808191818F
:103D7000A80EB91EB182A08285E0F82E8F2DDF91AA
:103D8000CF911F910F91FF90DF90CF90BF90AF9098
:103D900008950E9438208823D1F2F82EEFCFF60143
:103DA00081916F018093F1002197FFEFAF1ABF0A55
:103DB000CECFAF92BF92CF92DF92FF920F931F931D
:103DC000CF93DF936C01EB018A010E943820F82E1B
:103DD000811123C00115110539F0F801808191810D
:103DE000C81BD90BC80ED91EB12CA12C2097A9F045
:103DF0008091E80085FD22C08091E8008B77809358
:103E0000E80001151105A1F0F80180819181A80E4B
:103E1000B91EB182A08285E0F82E8F2DDF91CF915F
:103E20001F910F91FF90DF90CF90BF90AF900895BA
:103E30000E9438208823D1F2F82EEFCF8091F10034
:103E4000F60181936F012197FFEFAF1ABF0ACECF22
:103E5000FC018091AA029091AB0286179707A0F00F
:103E60006115710529F49091E8009E779093E80020
:103E700090E06115710551F4911108C08091E8003E
:103E800082FF34C080E00895BC01F2CF8091A3028C
:103E90008823C1F18530C1F18091E80083FD30C0F5
:103EA0008091E80082FDEACF8091E80080FFE1CFB9
:103EB0008091F3002091F200382F6115710519F0FF
:103EC0002830310558F091E02830310509F090E0B4
:103ED0002091E8002E772093E800CBCF819180934A
:103EE000F100615071092F5F3F4FE7CF8091A3022E
:103EF000882341F0853041F08091E80083FFBECFF8
:103F000081E0089582E0089583E00895FC018091A6
:103F1000AA029091AB0286179707A0F06115710570
:103F200029F48091E8008E778093E80090E0611595
:103F3000710551F4911108C08091E80082FF35C0ED
:103F400080E00895BC01F2CF8091A3028823C9F1DB
:103F50008530C9F18091E80083FD31C08091E8008F
:103F600082FDEACF8091E80080FFE1CF8091F300ED
:103F70002091F200382F6115710519F028303105B4
:103F800058F091E02830310509F090E08091E80088
:103F90008E778093E800CBCF84918093F1003196A7
:103FA000615071092F5F3F4FE6CF8091A3028823B4
:103FB00041F0853041F08091E80083FFBDCF81E082
:103FC000089582E0089583E00895982F973028F0AF
:103FD0008F708093E90081E008959093E900242F89
:103FE000762F50E0981731F07091EC002091ED00A1
:103FF0005091F00021FD02C09F5FE8CF3091EB00AF
:104000003E7F3093EB003091ED003D7F3093ED002B
:104010003091EB0031603093EB007093EC00209313
:10402000ED005093F0002091EE0027FDE5CF80E0F9
:1040300008958091A40287FF13C08091E80082FF59
:1040400006C08091E8008B778093E80004C08091DF
:10405000A3028111F2CF08958091A3028823D9F39E
:104060008091E80080FFF8CF8091E8008E77ECCF58
:104070002091E4003091E50095E6A9012091EC0043
:10408000822F817020FF06C08091E80080FF06C06B
:1040900080E008952091E80022FD1AC08091A302DB
:1040A000882389F0853089F08091EB0085FD0FC071
:1040B0002091E4003091E50042175307F9F2915046
:1040C000E1F684E0089582E0089583E0089581E0B8
:1040D00008950E94D8200E94E020E0EEF0E0808168
:1040E00081608083E8EDF0E080818F77808319BC68
:1040F000A7EDB0E08C918E7F8C9380818F7E808342
:104100001092A20208950F931F93CF93DF930E9402
:10411000D8200E94E020C8EDD0E088818F77888386
:1041200088818068888388818F7D888319BC1092FC
:10413000A30210929F021092A1021092A00200EE20
:1041400010E0F80180818B7F808388818160888383
:1041500042E060E080E00E94E51FE1EEF0E0808157
:104160008E7F8083E2EEF0E08081816080838081B9
:1041700088608083F80180818E7F80838881806160
:104180008883DF91CF911F910F910895E8EDF0E0C2
:1041900080818F7E8083E7EDF0E080818160808385
:1041A00084E082BF81E08093A2020E948320089570
:1041B000E8EDF0E080818E7F80831092E200089528
:1041C0001092DA001092E10008951F920F920FB63C
:1041D0000F9211242F933F934F935F936F937F938D
:1041E0008F939F93AF93BF93EF93FF938091E100E1
:1041F00082FF0BC08091E20082FF07C08091E10046
:104200008B7F8093E1000E9444238091DA0080FF3D
:1042100019C08091D80080FF15C08091DA008E7F90
:104220008093DA008091D90080FF96C080E189BD3B
:1042300082E189BD09B400FEFDCF81E08093A30235
:104240000E94A21C8091E10080FF19C08091E200D1
:1042500080FF15C08091E2008E7F8093E200809104
:10426000E20080618093E2008091D80080628093B8
:10427000D80019BC85E08093A3020E94B61C8091EF
:10428000E10084FF2BC08091E20084FF27C080E121
:1042900089BD82E189BD89B5982F917080FFFBCFE0
:1042A0008091D8008F7D8093D8008091E1008F7E2F
:1042B0008093E1008091E2008F7E8093E200809104
:1042C000E20081608093E20080919F02882309F4DC
:1042D00049C084E08093A3020E94BF1C8091E1004A
:1042E00083FF29C08091E20083FF25C08091E10017
:1042F000877F8093E10082E08093A30210929F0267
:104300008091E1008E7F8093E1008091E2008E7FBA
:104310008093E2008091E20080618093E20042E0BD
:1043200060E080E00E94E51F8091F000886080934B
:10433000F0000E94B31CFF91EF91BF91AF919F914C
:104340008F917F916F915F914F913F912F910F903E
:104350000FBE0F901F90189519BC1092A3020E94D7
:10436000B01C70CF8091E30087FD93E09093A3028F
:10437000B3CF1F920F920FB60F9211242F933F933A
:104380004F935F936F937F938F939F93AF93BF935D
:10439000CF93DF93EF93FF93D091E900DF7080918B
:1043A000EC00C82FC17080FDC0E81092E900809138
:1043B000F000877F8093F00078940E94FD21109296
:1043C000E9008091F00088608093F000CD2BCF70E1
:1043D000C093E900FF91EF91DF91CF91BF91AF9131
:1043E0009F918F917F916F915F914F913F912F910D
:1043F0000F900FBE0F901F901895AAE2B0E0E3E077
:10440000F2E20C94902384EA92E02091F100FC0106
:104410002193CF01F2E08C3A9F07B9F70E94E91C83
:104420008091E80083FF1EC18091A4029091A502B3
:104430009A3008F017C1E92FF0E0EB5BFB4D0C94CC
:104440007423803899F0823809F00CC18091A80259
:104450008F70873008F006C18093E9008091EB00EF
:1044600085FB882780F91092E90006C08091A002A0
:104470009091A102911182609091E800977F9093B2
:10448000E8008093F1001092F1008091E8008E77AF
:10449000E5C0882309F4D3C0823009F0E3C08091DD
:1044A000A6028111D6C08091A8028F702FEF280F2D
:1044B000263008F0D7C08093E9002091EB0020FF60
:1044C000C8C0933031F48091EB0080628093EB00A0
:1044D000C0C09091EB0090619093EB0021E030E040
:1044E00001C0220F8A95EAF72093EA001092EA00B1
:1044F0008091EB008860EACF8111B4C01091A602D0
:104500001F778091E3008078812B8093E300809176
:10451000E800877F8093E8000E9419208091E800DE
:1045200080FFFCCF8091E30080688093E30082E00D
:10453000111183E08093A30295C08058823008F067
:1045400091C08091A6029091A7028C3D23E0920732
:10455000A1F583E08A838AE289834FB7F894DE016C
:10456000139620E03EE051E2E32FF0E05093570035
:10457000E49120FF03C0E295EF703F5FEF708E2F54
:1045800090E0EA30C0F0C7968D939D932F5F243161
:1045900059F74FBF8091E800877F8093E8006AE277
:1045A00070E0CE0101960E94281F8091E8008B7771
:1045B0008093E80057C0C096E7CF6091A802709141
:1045C000A902AE014F5F5F4F0E941A1EBC01892BEA
:1045D00009F448C09091E800977F9093E8008981A2
:1045E0009A810E94861FE1CF8038E1F58091E80032
:1045F000877F8093E80080919F028093F10045CFF0
:10460000811130C09091A602923060F58091E8004F
:10461000877F8093E80090939F020E9419208091E9
:104620009F02882311F084E005C08091E30087FD9C
:10463000FACF81E08093A3020E94CA1C13C080912C
:10464000A602813079F481E0933009F080E0809314
:10465000A1021092E9008091E800877F8093E80032
:104660000E9419208091E80083FF0AC08091E80031
:10467000877F8093E8008091EB0080628093EB005D
:10468000AA96E3E00C94AC230895CF938091A30203
:104690008823A1F0C091E900CF709091EC00892FA0
:1046A000817090FD80E8C82B1092E9008091E800AD
:1046B00083FD0E94FD21CF70C093E900CF91089542
:1046C00097FB072E16F4009407D077FD09D00E94BF
:1046D000B82307FC05D03EF4909581959F4F08952F
:1046E000709561957F4F0895EE0FFF1F0590F4912F
:1046F000E02D099469279627692778278727782747
:1047000008952F923F924F925F926F927F928F9275
:104710009F92AF92BF92CF92DF92EF92FF920F9350
:104720001F93CF93DF93CDB7DEB7CA1BDB0B0FB65A
:10473000F894DEBF0FBECDBF09942A883988488817
:104740005F846E847D848C849B84AA84B984C884AD
:10475000DF80EE80FD800C811B81AA81B981CE0FA4
:10476000D11D0FB6F894DEBF0FBECDBFED01089589
:10477000AA1BBB1B51E107C0AA1FBB1FA617B70787
:1047800010F0A61BB70B881F991F5A95A9F78095A3
:104790009095BC01CD010895FB01DC0104C08D9111
:1047A0000190801921F441505040C8F7881B990BA3
:1047B0000895FB01DC0102C001900D924150504070
:1047C000D8F70895F999FECF92BD81BDF89A99273F
:1047D00080B50895A8E1B0E042E050E00C941624C2
:1047E000262FF999FECF92BD81BDF89A019700B4AA
:1047F000021639F01FBA20BD0FB6F894FA9AF99A4A
:104800000FBE08950396272F0E94F1230E94F023E4
:10481000252F0E94F123242F0C94F1230196272F9A
:104820000E94F1230C94F023DC01CB01FC01F999E7
:10483000FECF06C0F2BDE1BDF89A319600B40D92EC
:1048400041505040B8F70895F894FFCFE004E004D9
:10485000110511059E05BA0540054005C5052C0644
:104860003B063B065F146B1492149E14A914B414F7
:10487000B714B714B714B714B714BA14BE14C614C7
:10488000D314E014E314E614F31421224922322352
:0E489000492232237C229D223223F42200236F
:10489E001302280850011E0A1401DF1B041CE31B1F
:1048AE00731C6E1CE21B01E200E900EA00B500B6C3
:1048BE0000B700CD008301CC008A01920194012142
:1048CE0002230224022502260227022A02B300B482
:1048DE00006F007000818283E200E900EA00B500FB
:1048EE00B600B700CD008301CC008A01920194017D
:1048FE002102230224022502260227022A02B300E5
:10490E00B4006F007000818283946697C63435F4CC
:10491E00F5F6F731333236939291904022B6C303B7
:0A492E00EB020D039002A902C9027A
:00000001FF
